:040000000C9432002A
:040018000C948501BE
:140054003F065B4F666D7D077F6F0E0D0B070100CFE5D4E0CE
:14006800CDBFDEBFC051D0400AEA08830024E0E7F0E010E010
:14007C00EB37F10711F00192FBCF0083E4E5F0E0A0E6B0E0C6
:1400900010E0E436F10721F0C89531960D92F9CF0E947D019E
:1400A400FFCF0E94D501442707C06DE001C06A952224261641
:1400B800E0F343954017B8F30E94BB0108950E94BE0128EE15
:1400CC0033E000916E0010916F000E9491011093770000931D
:1400E000760028EE33E000916E0010916F000E948F0124E622
:1400F40030E00E949101109375000093740024E630E00091EA
:140108006E0010916F000E948F012AE030E00E949101109342
:14011C007300009372002AE030E000916E0010916F000E948C
:140130008F011093710000937000209174003091750004E6CF
:1401440010E00E94AB011801209176003091770008EE13E008
:140158000E94AB01A801420D531D20917200309173000AE09C
:14016C0010E00E94AB01400F511F2090700030907100420DE2
:14018000531D04EF11E09A010E949101A8011A01232C3324DE
:140194002BBCCA0190708ABD20906A0025BA80E690E0E0911E
:1401A8007600F0917700E80FF91F20802BBA02E376DF209057
:1401BC006B0025BA80E690E0E0917400F0917500E80FF91F25
:1401D00020802BBA02E367DF20906C0025BA80E690E0E09129
:1401E4007200F0917300E80FF91F20802BBA02E358DF209041
:1401F8006D0025BA80E690E0E0917000F0917100E80FF91FEF
:14020C0020802BBA02E349DF0E94C101089504C054DF81E0F3
:1402200080937A00B09BFACF04C04DDF81E080937900B19B00
:14023400FACF04C046DF81E080937800B29BFACF80917A0077
:140248008130B1F480916E0090916F00019690936F00809301
:14025C006E008E31E0E09E0730F08EE190E090936F00809358
:140270006E00222420927A00809179008130D1F420906E007C
:1402840030906F00222041F4332031F481E090E090936F00E5
:1402980080936E0080916E0090916F00019790936F00809385
:1402AC006E0022242092790080917800813049F481E090E017
:1402C00090936F0080936E0022242092780008958FEF8ABB47
:1402D4008BBB84BB85BB222427BA28BA81BB82BB089589B7F2
:1402E800806189BF8AE08EBD22242DBC2CBC78940895EADF9B
:1402FC00E4DEF3DF02C08BDFE0DEFDCF08952A922FB62A92AA
:1403100022B2209422BA29902FBE29901895689401C0E89430
:14032400EA92FA928A93EE24FF2480E1000F111FEE1CFF1CA6
:14033800E216F30618F0E21AF30A03958A95A1F716F40E2D2B
:14034C001F2D8991F990E99008950A921A928A939A93029F65
:14036000C001129F900D039F900D8C01999189911990099028
:140374000895E2E00C94C2015A934A930895E1E049915991C7
:14038800E0FD089569917991E1FD0895A990B990E2FD08956A
:14039C00C990D990E3FD0895E990F99008957A936A930C94C5
:0203B000BE018C
:00000001FF
