:100628000D0A0030313233343536373839414243D8
:0D06380044454600000000000000000000E6
:09067400C102C101C10001210015
:0605CA008B528A53895494
:1005D000D204E4FFEFC39D5025AB52AA53A9548F18
:1005E00082758300120135FEE4FCEE30E005A204C2
:1005F000B39204EEC313FE0CBC08EF0F80D6A20426
:0106000022D7
:100577008B528A538954E94A4B600EE557455645D5
:10058700556006E55B455A7002C322AB550557E532
:1005970057AA567002055614F912011CFFAB5205F3
:1005A70054E554AA537002055314F9EF1201627807
:1005B7005874FF120268E4FBFAF9F8C3120242709A
:0305C700CAD32272
:1006450075984075C83475CAD975CBFFD29CD2ACA4
:010655002282
:0606660014F912011CFF53
:08066C008F993099FDC299221B
:100003008B528A538954AF051DEF6011AB520554CF
:0E001300E554AA537002055312066680E922D6
:100601008B1B8A1C891DE51C451D451B6018AB1BF6
:10061100AA1CA91D12011C600D051DE51D70020516
:070621001C12066680E022B6
:0E0286008B088A09890A8F0E8E0D8D0C8C0B49
:10029400E4F51078117C00FD7BFF7A06793BFE7F44
:1002A4000A1200F6AB08AA09A90A120601E50F64AE
:1002B4000A7065F510E47B0AFAF9F8AF0EAE0DADDD
:1002C4000CAC0B1201B0EB2430FF74112510F8A60E
:1002D40007AF0EAE0DAD0CAC0BE47B0AFAF9F812C5
:1002E40001B08F0E8E0D8D0C8C0B0510E510B40A29
:1002F400C475100974112510F8E6B430091510E519
:1003040010C3940050EE74112510F8E6FF12066C29
:10031400E5106004151080EEE50F641070677F30FF
:1003240012066C7F7812066C75101CE5106027AFFE
:100334000EAE0DAD0CAC0BF9F8120253EF540FFFD7
:10034400E4FEFDFCFBFAF9F8C3120242700874FCE7
:100354002510F51080D5AF0EAE0DAD0CAC0BA91069
:10036400A8011202537E00EF540F242BF582EE34C1
:1003740006F583E493FF12066CE510600874FC250F
:0E03840010F51080D17BFF7A06792802060161
:0F0656007F01EF2552F5520FBF65F7AF527E00BF
:010665002272
:1004FD00E4F54EF54F120645D2AF12065630020501
:10050D00E4F5A0800375A0FF300104D2868002C2FD
:10051D00863000E9C200C2AC752220752301752416
:10052D00017B007A007922E5252404FD1205CAE439
:10053D0033F536AF2574262FF9E4FAFBC002C0015E
:10054D00F555755600755736755B01F55AF559F524
:10055D0058D001D0021205777B007A007922E5256B
:0A056D002405FD120003D2AC8093B8
:0300230002039243
:10039200C0E0C0F0C083C082C0D075D000C000C031
:0D03A20001C002C003C004C005C006C007B2
:1003AF00209803020456C298AF21052174222FF81A
:1003BF00A699E52264106003020453AF25EF2405CC
:1003CF00FFE433FEC3E5219FEE6480F874809850FC
:1003DF000FE521C39402406FE523640160698064D7
:1003EF00E5252404F5427B007A007922FD1205CA27
:1003FF00E433F54374222542F9E4F555F556895750
:10040F00755B01F55AF559F558FB7A0079361205E7
:10041F0077E54365366002802BE52424FE601414D3
:10042F00601E2402701CE526B40104D2018013C2A1
:10043F0001800FE526B40304D2028006C2028002B7
:07044F00D2008000752100BE
:10045600D007D006D005D004D003D002D001D000FA
:0B046600D0D0D082D083D0F0D0E032A4
:0300000002047186
:0C047100787FE4F6D8FD75815B0204B8CA
:10047D000204FDE493A3F8E493A34003F68001F294
:10048D0008DFF48029E493A3F85407240CC8C33380
:10049D00C4540F4420C8834004F456800146F6DF4F
:1004AD00E4800B0102040810204080900674E47E65
:1004BD00019360BCA3FF543F30E509541FFEE49344
:1004CD00A360010ECF54C025E060A840B8E493A30B
:1004DD00FAE493A3F8E493A3C8C582C8CAC583CA36
:1004ED00F0A3C8C582C8CAC583CADFE9DEE780BEEE
:01067D00007C
:10002600E709F608DFFA8046E709F208DFFA803EBC
:1000360088828C83E709F0A3DFFA8032E309F608A9
:10004600DFFA8078E309F208DFFA807088828C8311
:10005600E309F0A3DFFA806489828A83E0A3F608C5
:10006600DFFA805889828A83E0A3F208DFFA804C9F
:1000760080D280FA80C680D4806980F28033801076
:1000860080A680EA809A80A880DA80E280CA8033DF
:1000960089828A83ECFAE493A3C8C582C8CCC58357
:1000A600CCF0A3C8C582C8CCC583CCDFE9DEE78027
:1000B6000D89828A83E493A3F608DFF9ECFAA9F0A6
:1000C600EDFB2289828A83ECFAE0A3C8C582C8CCFC
:1000D600C583CCF0A3C8C582C8CCC583CCDFEADE15
:1000E600E880DB89828A83E493A3F208DFF980CC77
:1000F60088F0EF60010E4E60C388F0ED2402B40470
:100106000050B9F582EB2402B4040050AF23234516
:06011600822390007673C5
:10011C00BB010689828A83E0225002E722BBFE02E1
:09012C00E32289828A83E4932214
:10013500BB010CE58229F582E5833AF583E022507F
:1001450006E92582F8E622BBFE06E92582F8E222C9
:0D015500E58229F582E5833AF583E49322E3
:10016200BB010689828A83F0225002F722BBFE017C
:02017200F32276
:1001740075F008758200EF2FFFEE33FECD33CDCC42
:1001840033CCC58233C5829BED9AEC99E5829840C5
:100194000CF582EE9BFEED9AFDEC99FC0FD5F0D6A2
:1001A400E4CEFBE4CDFAE4CCF9A88222B800C1B9CC
:1001B4000059BA002DEC8BF084CFCECDFCE5F0CB0A
:1001C400F97818EF2FFFEE33FEED33FDEC33FCEB43
:1001D40033FB10D703994004EB99FB0FD8E5E4F9FE
:1001E400FA227818EF2FFFEE33FEED33FDEC33FCEB
:1001F400C933C910D7059BE99A4007EC9BFCE99ADF
:10020400F90FD8E0E4C9FAE4CCFB2275F010EF2F23
:10021400FFEE33FEED33FDCC33CCC833C810D70723
:100224009BEC9AE899400AED9BFDEC9AFCE899F85E
:0E0234000FD5F0DAE4CDFBE4CCFAE4C8F922F1
:10024200EB9FF5F0EA9E42F0E99D42F0E89C45F012
:010252002289
:10025300E8600FECC313FCED13FDEE13FEEF13FF89
:03026300D8F122AD
:100266007401FF3395E0FEFDFC080808E62FFFF653
:1002760018E63EFEF618E63DFDF618E63CFCF622CC
:00000001FF
