:030000000200A754
:0C00A700787FE4F6D8FD7581100200EEB1
:10018900030B090D0C0E060707060E0C0D090B03D0
:04019900020E001939
:09013300E51093F5907F647E0055
:10013C00E4F50BC3E50B9FEE6480F87480985016C1
:10014C00E4F50CC3E50C945E748094815004050CAA
:07015C0080F1050B80DD229C
:10016300E4F5109001911201330510E510C39408D2
:0301730040F12236
:10017600E4F5109001891201330510E510C39408C7
:0301860040F12223
:10000300E4F508F50920A21212013830A2FD050813
:10001300E508C39409400375080920A312120138A7
:1000230030A3FD1508E508D394005003E4F508E573
:10003300091460080470081201638003120176E555
:1000430008B40A0050BF900050F828287302006ECD
:1000530002007302007802007D020083020089021D
:10006300008F02009502009B0200A175B0C080952D
:1000730075B0F9809075B0A4808B75B0B00200089C
:1000830075B09902000875B09202000875B082023B
:10009300000875B0F802000875B08002000875B05A
:0400A30090020008BF
:1000B300020003E493A3F8E493A34003F68001F260
:1000C30008DFF48029E493A3F85407240CC8C3334E
:1000D300C4540F4420C8834004F456800146F6DF1D
:1000E300E4800B0102040810204080900199E47E13
:1000F300019360BCA3FF543F30E509541FFEE49312
:10010300A360010ECF54C025E060A840B8E493A3D8
:10011300FAE493A3F8E493A3C8C582C8CAC583CA03
:10012300F0A3C8C582C8CAC583CADFE9DEE780BEBB
:01019D000061
:00000001FF
