:040000000C94460016
:14008C00CFEFD0E1CDBFDEBFC051D0400AEA08830024E0E044
:1400A000F1E011E0E030F10711F00192FBCF0083ECE8F0E0FD
:1400B400A0E0B1E010E0EC38F10721F0C89531960D92F9CF7F
:1400C8000E947A00FFCF0E9491000AC040E45FE102C0415086
:1400DC00504040304507D9F7015010400030010799F70E94E9
:1400F000940008958FEF81BB82BB11C0909A919A04E610E0D4
:14010400E4DF8EEF9FEF22B2282222BA8DEF22B2282222BAA9
:1401180004E610E0D8DFEECF08955A934A930895E1E04991E6
:14012C005991E0FD089569917991E1FD0895A990B990E2FD7B
:100140000895C990D990E3FD0895E990F990089534
:00000001FF
