:040000000C94330029
:140054003F065B4F666D7D077F6F790000000000F401CFE542
:14006800D4E0CDBFDEBFC051D0400AEA08830024E2E7F0E04A
:14007C0010E0E437F10711F00192FBCF0083E4E5F0E0A0E66D
:14009000B0E010E0E636F10721F0C89531960D92F9CF0E948A
:1400A4000D01FFCF0E943B010AC040E45FE102C0415050407D
:1400B80040304507D9F7015010400030010799F70E943E015E
:1400CC0008950E945601580141E0662713C045BBE62FFF2775
:1400E000EA0DFB1DE081FF2780E690E0E80FF91F208020943D
:1400F4002BBA01E010E0D6DF440F6395643058F30E94380188
:14010800089506C00CE610E0DEDF81E080937300B09BF8CFE8
:14011C0006C00CE610E0D5DF81E080937200B19BF8CF809169
:140130007300813091F48CEF93E0209070003090710082153C
:14014400930530F0C1010A969093710080937000222420927E
:14015800730080917200813079F481E0882349F080917000B9
:14016C00909171000A979093710080937000222420927200CB
:1401800008950E943B01A80128EE33E000917000109171000B
:140194000E941E01FA01008328EE33E00091700010917100DC
:1401A8000E941C0124E630E00E941E01FA01018324E630E010
:1401BC0000917000109171000E941C012AE030E00E941E0182
:1401D000FA0102832AE030E000917000109171000E941C01AF
:1401E400FA01038340917000509171001A01232C33242BBC4B
:1401F800CA0190708ABD0E943E0108958FEF8ABB8BBB84BB1B
:14020C0085BB222427BA28BA81BB82BB0895F4DF83EC8FBDF1
:1402200082E08EBD07C071DF0CE610E0AADF0CE610E04DDF8D
:14023400F8CF0895689401C0E894EA92FA928A93EE24FF24BF
:1402480080E1000F111FEE1CFF1CE216F30618F0E21AF30AEB
:14025C0003958A95A1F716F40E2D1F2D8991F990E9900895F5
:14027000E4E00C943F015A934A930895E1E049915991E0FD0D
:14028400089569917991E1FD0895A990B990E2FD0895C990F3
:14029800D990E3FD0895E990F99008957A936A930C943B01E7
:0802AC00BA92AA920C945201CF
:00000001FF
