:030000000200E417
:0C00E400787FE4F6D8FD7581080200C1A9
:1000D400C0F9A4B0999282F880908883C6A1868ED4
:0800F0007F147EF8DEFEDFFA4A
:0100F80022E5
:1000030075900FE590640F700302009A1200F0E5FB
:1000130090640F700302009AAF907590F0AE90EF6A
:100023004E12009B00977700937B008F7D008B7EA1
:100033000087B70083BB007FBD007BBE0077D7007E
:1000430073DB006FDD006BDE0067E70063EB005FCF
:10005300ED005BEE0000009AE4F50822750801222A
:100063007508022275080322750804227508052203
:1000730075080622750807227508082275080922E3
:1000830075080A2275080B2275080C2275080D22C3
:0700930075080E2275080F2D
:01009A002243
:1000C1007590FF120003E5089000D493F58075A0A8
:0300D1000F80EDB0
:10009B00D083D082F8E4937012740193700DA3A3F4
:1000AB0093F8740193F5828883E473740293686008
:0600BB00EFA3A3A380DF08
:00000001FF
