:040000000C942B0031
:0100540000AB
:14005600CFE5D4E0CDBFDEBFC051D0400AEA08830024E1E67A
:14006A00F0E010E0E436F10711F00192FBCF0083E4E5F0E036
:14007E00A0E6B0E010E0E535F10721F0C89531960D92F9CFBA
:140092000E947700FFCF84E68093630021C084E180936200D8
:1400A60013C088EF8093610005C0809161008150809361000C
:1400BA002224309061002314B0F38091620081508093620038
:1400CE00222430906200231440F38091630081508093630091
:1400E2002224309063002314D0F208958FEF87BB15C02090C6
:1400F6006000222019F08EEF88BB02C08FEF88BB20906000F8
:14010A00222019F441E050E002C04427552740936000BDDFC9
:04011E00EACF089587
:00000001FF
