:0300000002000EED
:0C000E00787FE4F6D8FD758112020055E1
:0E020C00C0F9A4B0999282F88090F7FBFDFE35
:1001F400010D00011200020A0000010C00040E00AF
:0702040000000002080000E9
:02017300AD07D6
:10017500E4FCC374079CFF74017E00A80708800592
:10018500C333CE33CED8F9FFEDFBEF5B6004D284E9
:0C0195008002C284C285D2850CBC08D652
:0101A100223B
:1000EF00AE0AAF0B7C007D0A12009A8D0EAE0AAFDE
:1000FF000B7C007D0A12009A7C007D0A12009A8DFB
:10010F000FAE0AAF0B7C007D6412009A7C007D0A53
:10011F0012009A8D10AE0AAF0B7C037DE812009A85
:0A012F007C007D0A12009A8D112257
:1001CE0075800F740E250CF8E690020C93FF120149
:1001DE0073E50C90021693F580050CE50CC39404A0
:0501EE004003E4F50CE4
:0101F30022E9
:0A022700758CEC758A787589012248
:05000300D28CD2A922FD
:0D021A0075B0FF75A0FF7590FF7580FF2285
:1001390012021A1202271200031200EFD2AFE50DC4
:1001490060FCE4F50DE512601CE4F512050BE50B06
:100159007002050AC3940FE50A94274005E4F50ADD
:0A016900F50B1200EF1201CE80D456
:03000B000201A24D
:0401A200C0E0C0D029
:1001A600758CEC758A78750D010509E509700205EF
:1001B60008C394C8E508940040097508007509004D
:0301C600751201AE
:0501C900D0D0D0E032AF
:10001A00020139E493A3F8E493A34003F68001F2C2
:10002A0008DFF48029E493A3F85407240CC8C333E7
:10003A00C4540F4420C8834004F456800146F6DFB6
:10004A00E4800B01020408102040809001F4E47E51
:10005A00019360BCA3FF543F30E509541FFEE493AB
:10006A00A360010ECF54C025E060A840B8E493A372
:10007A00FAE493A3F8E493A3C8C582C8CAC583CA9D
:10008A00F0A3C8C582C8CAC583CADFE9DEE780BE55
:01020B0000F2
:10009A00BC000BBE0029EF8DF084FFADF022E4CC4A
:1000AA00F875F008EF2FFFEE33FEEC33FCEE9DEC13
:1000BA00984005FCEE9DFE0FD5F0E9E4CEFD22ED59
:1000CA00F8F5F0EE8420D21CFEADF075F008EF2FA3
:1000DA00FFED33FD4007985006D5F0F222C398FD94
:0500EA000FD5F0EA2231
:00000001FF
