:03000000020030CB
:0300030002005A9E
:0300130002005F89
:10003000758901758A00758C0075A8FFD28AC2AADD
:10004000C288C2B420900DD2B4D2AA7530007531E6
:100050000075320012008A020044C2B4C2AA32E51E
:1000600030B4090C753000E5312401F53102007718
:100070002401F530020089B4090F753100E53224FE
:1000800001F532B4090375320032783079037AFE13
:10009000EA90BFFFF0E69000B193907FFFF012006E
:1000A000A808EA23FAD9E9227F047EFFDEFEDFFA00
:0B00B000223F065B4F666D7D077F6FEF
:00000001FF
