:10010800080938395335310D0A000A115249434854
:060118004D43550D0A00E5
:10008F00759840E4F587D29C758920758DE6758B40
:10009F00E6D28EE4F50874092508F8E6600BF599A9
:1000AF003099FDC299050880EDE4F583F582AA83A6
:1000BF00AB82AF03AE02E4FCFD7B507AC3F9F8D3F9
:1000CF0012011F4003A380E6E4F50874112508F818
:1000DF00E6600BF5993099FDC299050880EDE4F5BE
:1000EF0083F582AF82AE83E4FCFD7B507AC3F9F8CF
:0900FF00D312011F409DA380EA09
:03000000020003F8
:0C000300787FE4F6D8FD75811A02004AEF
:10011F00EB9FF5F0EA9E42F0E99D42F0EC6480C857
:06012F0064809845F022F7
:10000F0002008FE493A3F8E493A34003F68001F278
:10001F0008DFF48029E493A3F85407240CC8C333F2
:10002F00C4540F4420C8834004F456800146F6DFC1
:10003F00E4800B0102040810204080900108E47E48
:10004F00019360BCA3FF543F30E509541FFEE493B6
:10005F00A360010ECF54C025E060A840B8E493A37D
:10006F00FAE493A3F8E493A3C8C582C8CAC583CAA8
:10007F00F0A3C8C582C8CAC583CADFE9DEE780BE60
:01011E0000E0
:00000001FF
