:10003000FEFDFBF7EFDFBF7F7FBFDFEFF7FBFDFECE
:10004000FFFEFCFBF0E0C08000E7DBBD7EFFFF3C75
:08005000180081C3E7FFFF7EE9
:0C007900E4FFE4FE0EBEFAFC0FBFC8F668
:010085002258
:060058008B088A09890AE9
:10005E00E4FDAB08AA09A90A8D827583001200037C
:0B006E00FF60EDF5801200790D80E7C7
:090092007BFF7A0079300200586E
:0300000002008675
:0C008600787FE4F6D8FD75810A02009234
:10000300BB010CE58229F582E5833AF583E02250B2
:1000130006E92582F8E622BBFE06E92582F8E222FC
:0D002300E58229F582E5833AF583E4932216
:00000001FF
