:03000000020003F8
:0C000300787FE4F6D8FD75810902004A00
:0400EA000208000008
:1000D700E4FDEDC39FE49E5009E4FC0CBCFAFC0D63
:0200E70080F0A7
:0100E90022F4
:10008F00D290D291D292D29320A00B20A0087508C3
:10009F00027509BC80F520A10720A104C29280F946
:1000AF0020A20720A204D29280F9C3E5099401E5AA
:1000BF0008940040D3E509150970021508B2937F23
:0800CF00037E001200D780C07F
:10000F0002008FE493A3F8E493A34003F68001F278
:10001F0008DFF48029E493A3F85407240CC8C333F2
:10002F00C4540F4420C8834004F456800146F6DFC1
:10003F00E4800B01020408102040809000EAE47E67
:10004F00019360BCA3FF543F30E509541FFEE493B6
:10005F00A360010ECF54C025E060A840B8E493A37D
:10006F00FAE493A3F8E493A3C8C582C8CAC583CAA8
:10007F00F0A3C8C582C8CAC583CADFE9DEE780BE60
:0100EE000011
:00000001FF
