:10000300BBB6D3ADC4E3CAB9D3C3C8F1D6BEB5E753
:10001300C4DCCAB5D1E9B0E5B9A6C4DCB3ACC7BF8B
:10002300D7D3B5C4525A2D353150524FB6E0B9A685
:10003300D1A7CFB0B5A5C6ACBBFAB5C4CAD7D1A1B9
:1000430000BBB6D3ADB9E2C1D9C8F1D6BEB5E7D7C7
:10005300D35757572E524943484D43552E434F4D7F
:10006300000000000000000000000000000000008D
:1000730000001E000000000007F000000000000068
:1000830000007F8000000000180C00000100000049
:100093000001FF800000000020000000131003FE99
:1000A3000003FFC000000000580000003F301FFFA6
:1000B300C003FFE0000000008C03F0007FE07C0140
:1000C300E003FFF0000000013606C0005FC0FFFC44
:1000D3006001FFF0000000021B0F8000FF01FE0F14
:1000E3003000EFF0000000026D9F00003E03FFF1BF
:1000F3009000FFF80000000436FE0001FF07FFFC3C
:100103009000EFFFFF800004DB7E0003FF87FFFC0E
:10011300D0000FFFFFC000046DFC0007FF8FFFFE40
:1001230050000FFFFFE0000436FC1007FF8FFFFEB7
:1001330090000FFFFFE000041BF81007FFCFFFFE46
:1001430080000FFFFFF000040FF81007FFFFFFFA16
:10015300000007FFFFF0000407F01007FFFFFFFA9E
:100163000000FFFFFFF8000203F02007FFFFFFBAC4
:100173000000FDFFFFFC000203F02003FFFFDFB8D8
:100183000000C1C03FFC000101E04000FFFFDFB001
:10019300000081C03FCE000081E080007FFFDFA030
:1001A300000081801DCF000041E100003FFF9B0064
:1001B300000183801FC7800021E200001FFDB600FD
:1001C3000001C3000EE6800019EC000007FE2000CA
:1001D3000000C3000767400007F00000033E000073
:1001E3000000020003E7A00000000000028E0000F0
:1001F300000006000383000000000000020300006B
:1002030000000600070300774674248006040000FC
:1002130000001C00060000554554578000000000F4
:1002230000001C000E0000454574578008000000C4
:10023300000000001C00005545447480F0000000DD
:10024300000000003800007776475480000000006B
:10025300000000000000001000000000000000008B
:10026300000000000000000000000000000000008B
:10027300000000000000000000000000000000007B
:10028300000000000000000000000000000000006B
:10029300000000000000000000000000000000005B
:1002A300000000000400C00038000030000069C0F6
:1002B300000000000418C000180000300001FFF027
:1002C300000000000C18C00ABD501D75E001C0F00D
:1002D300000074003F8C801FFFF03FFFF0000DE033
:1002E30000038F00F03FF030180018306000070063
:1002F300000C0380DF30700038001D756005575413
:10030300001041803E302007FFE01FFFE01FFFFF8A
:100313008021C1C0043CF00208001830603F47BF91
:100323008040C1807F9FA00219801D7FE0300303BE
:1003330000C1C1802E05802799800FFFE0000300D4
:1003430000818300040D0033E3000C700000030000
:10035300008186000D9980603E000038010007008F
:100363000081BC000F39C6E00FB6003FBF00070095
:100373000083F0001EE0FEE003FE000FFE01FF001D
:1003830000C3300089807C0001F80007FC007C007A
:10039300006331FF00000000002000005000000057
:1003A30000631912000000000000000000000000BC
:1003B300000719043FFFFFFFFFFFFFFFFFFFFFFFE2
:1003C300800719883FFFFFFFFFFFFFFFFFFFFFFFCE
:1003D30080060C1000000000000000000000000078
:1003E300000E0C2000000000000800000000400088
:1003F300003E0E400A6DB40784351A67A201A79B1D
:10040300004586800AAAB40444269268A201349364
:10041300000003010EAEB40444611B68A2010C5B2F
:10042300000007030ABAD8068441F2C8220308D79A
:10043300000007870D96680584619BE822020C5F24
:1004430000001FF60DB65804844515A8A20314D561
:10045300000010FC05924804842593ACA201249566
:10046300000000000D964904443D14A71C41E71504
:100473000000000000000000000000000000000079
:100483000000000000000000000000000000000069
:100493000000000000000000000000000000000059
:1004A3000000000000000000000000000000000049
:1004B3000000000000000000000000000000000039
:1004C3000000000000000000000000000000000029
:1004D3000000000000000000000000000000000019
:1004E3000000000000000000000000000000000009
:1004F30000000000000000000000000000000000F9
:1005030000000000000000000000000000000000E8
:1005130000000000000000000000000000000000D8
:1005230000000000000000000000000000000000C8
:1005330000000000000000000000000000000000B8
:1005430000000000000000000000000000000000A8
:100553000000000000000000000000000000000098
:100563000000000000000000000000000000000088
:100573000000000000000000000000000000000078
:100583000000000000000000000000000000000068
:100593000000000000000000000000000000000058
:1005A3000000000000000000000000000000000048
:1005B3000000000000000000000000000000000038
:1005C3000000000000000000000000000000000028
:1005D3000000000000000000000000000000000018
:1005E3000000000000000000000000000000000008
:1005F30000000000000000000000000000000000F8
:1006030000000000000000000000000000000000E7
:1006130000000000000000000000000000000000D7
:1006230000000000000000000000000000000000C7
:1006330000000000000000000000000000000000B7
:1006430000000000000000000000000000000000A7
:100653000000000000000000000000000000000097
:010663000096
:100A1800D2B5D2B37D30E4FF1209887D01E4FF121C
:100A280009887D06E4FF1209887D0CE4FF02098825
:0409A5008E088F0920
:1009A9007D30E4FF1209887D80E4FF120988E4F5AF
:1009B9000BE4F50AE50B75F010A47C00250AFFECA1
:1009C90035F0FEE5092FF582E508120980050AE5EB
:0F09D9000AC3941040DE050BE50BC3940440D213
:0109E80022EC
:04084B008E088F097B
:10084F007D30E4FF1209887D80E4FF120988E4F50A
:10085F000BF50AE50B75F010A47C00250AFFEC35AB
:10086F00F0FEE5092FF582E508120980050AE50A71
:10087F00C3941040DE7D90E4FF120988750B01E4EC
:10088F00F50AE50B75F010A47C00250AFFEC35F096
:10089F00FEE5092FF582E508120980050AE50AC36E
:0408AF00941040DE83
:0108B3002222
:040664008E088F0964
:10066800E4F50BE4F50A7D34E4FF120988E50B2470
:1006780080FDE4FF120988E50A2480FDE4FF1209E1
:10068800887D30E4FF120988E50A75F002A4FDAC04
:10069800F0E50B75F010A42DFFE5F03C1209781277
:1006A800095E050AE50AC3940840BB050BE50BC3C0
:1006B800942040AF750B20E4F50A7D34E4FF12095D
:1006C80088E50B2460FDE4FF120988E50A2488FD0B
:1006D800E4FF1209887D30E4FF120988E50A75F005
:1006E80002A4FDACF0E50B75F010A42DFFE5F03C7D
:1006F80012097812095E050AE50AC3940840BB0589
:0F0708000BE50BC3944040AF7D36E4FF02098838
:0407C2008E088F0905
:1007C600E4F50BE4F50A7D34E4FF120988E50B2411
:1007D60080FDE4FF120988E50A2488FDE4FF12097A
:1007E600887D30E4FF120988E50A75F002A4FDACA5
:1007F600F0E50B75F010A42DFFE5F03CFEE5092FA2
:10080600F582E508120980E50A75F002A4FDACF050
:10081600E50B75F010A42DFFE5F03CCF2401CF3495
:1008260000FEE5092FF582E508120980050AE50AAA
:10083600C394084091050BE50BC3942040857D3693
:05084600E4FF02098837
:040717008F088D09B1
:10071B00750D80E4F50CE4F50BE4F50A7D34E4FF8C
:10072B00120988E50B25E02480FDE4FF120988E51A
:10073B000D250AFDE4FF1209887D30E4FF120988BC
:10074B00AD087F01120988AD087F01120988050ADF
:10075B00E50AC3940840C5E4F50A7D34E4FF1209A9
:10076B0088E50B25E02481FDE4FF120988E50D25C2
:10077B000AFDE4FF1209887D30E4FF120988AD09F8
:10078B007F01120988AD097F01120988050AE50A64
:10079B00C3940840C5050BE50BC394105003020727
:1007AB0024750D88050CE50CC39402500302072138
:0707BB007D36E4FF0209880E
:0608B4008F088D098B0A7C
:1008BA00E4F50FE50FC3950D5042E4F50EE50EC3BE
:1008CA00950C50347D34E4FF120988E50B250FFDA1
:1008DA00E4FF120988E50A250EFDE4FF1209887D66
:1008EA0030E4FF120988AD087F01120988AD097F3B
:1008FA0001120988050E80C5050F80B77D36E4FF11
:03090A0002098857
:0E0A47007D30E4FF1209887D01E4FF0209887A
:10095E00E50A75F002A4FDACF0E50B75F010A42DC0
:10096E00FFE5F03CCF2401CF3400FEE5092FF582E0
:0A097E00E5083EF583E493FD7F01D8
:100988008F108D11120A38E5106006D2B0C2B180FE
:0D09980004C2B0C2B1851180D2B2C2B22239
:0F0A38007580FFC2B0D2B1D2B22087FDC2B22208
:0B0A6100EF1FAC0670011E4C70F62267
:0409E9007F407E1FAE
:0409ED008E088F09D8
:1009F100E4FBFAC3EB9509EA9508501A9000007FD1
:100A0100017E00120A61A3E582640F458370F00B39
:060A1100BB00010A80DDBC
:010A170022BC
:10090D0075815F120A18E4FDFF1207177E007F0341
:10091D001209A5750B80750C02750D107B8C7DFF72
:10092D007FFF1208B41209E9120A47E4FDFF12070E
:10093D00177E007F4412084B7E007F641207C2129F
:10094D0009E9120A477E027F641206641209E980E2
:01095D00B5E4
:03000000020A559C
:0C0A5500787FE4F6D8FD75811102090DD0
:00000001FF
