:1001DC003031323334353637383900546573742046
:0701EC00526573756C74008D
:0C021900E4FFE4FE0EBE21FC0FBF0AF65D
:0102250022B6
:02020900AD073F
:0D020B00E4FCECC39D50061202190C80F5B6
:0102180022C3
:1001F300C2A0D2A1D2A200000000A2879200C2A294
:05020300A200E433FF3E
:0102080022D3
:070195007F051202097F380B
:10019C00AE071201F3EF640160F8C2A0C2A1C2A2C3
:1001AC0000008E8000000000D2A200000000C2A25D
:0101BC002220
:07023200EF4480FF02019C74
:1001BD00AE071201F3EF640160F8D2A0C2A1C2A292
:0F01CD008E8000000000D2A200000000C2A2221B
:100167007F0F1201971201951201957F051202095F
:100177007F0C12019C7F051202097F0612019C7FEA
:0E018700051202097F0112019C7F0502020988
:100003001201677F0A1202097F02120232E4F50825
:10001300E5089001E793FF60071201BD050880F032
:10002300120126AB07AA067C007D0A1200D18D09B6
:100033007C007D64AF03AE021200D17E007F0ACF45
:10004300CDCFCECCCE1200D18F0A7C037DE8AF0397
:10005300AE021200D17E007F64CFCDCFCECCCE12C4
:1000630000D18F0B7C277D10AF03AE021200D17E2F
:10007300037FE8CFCDCFCECCCE1200D18F0CAE0212
:10008300AF037C277D101200D1AD077F45120232EA
:10009300ED9001DC93FF1201BDE50C93FF1201BD4E
:1000A300E50B93FF1201BDE50A93FF1201BD7F2EFD
:1000B3001201BDE50993FF1201BDE4F5087FFA12B1
:0E00C30002090508E508C3940440F202002378
:03000000020226D3
:0C022600787FE4F6D8FD7581200200030B
:1000D100BC000BBE0029EF8DF084FFADF022E4CC13
:1000E100F875F008EF2FFFEE33FEEC33FCEE9DECDC
:1000F100984005FCEE9DFE0FD5F0E9E4CEFD22ED22
:10010100F8F5F0EE8420D21CFEADF075F008EF2F6B
:10011100FFED33FD4007985006D5F0F222C398FD5C
:050121000FD5F0EA22F9
:10012600AC0DAD0EAE0FAF10780FEFA2E2EC20E6ED
:1001360001B35D5E5FF47004FCFDFEFFEF13FFEE9E
:1001460013FEED13FDEC13FCD8E08C0D8D0E8E0F17
:100156008F10EE547FFE228E0D8F0EE4F50FF510F4
:010166002276
:00000001FF
