:0300000002001EDD
:0C001E00787FE4F6D8FD75810D020065C6
:0600FD00010800010914D6
:03001B00020003DD
:10000300C0E0758DFF758B17050DE50D7002050CAE
:03001300D0E03208
:1000AA00E4F58975A888758DFF758B17D28CD28E69
:1000BA00F50AF50BF50CF50DD2B6E4F50CF50DE5E0
:1000CA000D450C60FAE508B50902C2B6E508646494
:1000DA00601C050820A004D290C29120A104D290ED
:1000EA00D29120A202050920A3D0150980CCE4F5FB
:0300FA000880C5B6
:10002A000200AAE493A3F8E493A34003F68001F242
:10003A0008DFF48029E493A3F85407240CC8C333D7
:10004A00C4540F4420C8834004F456800146F6DFA6
:10005A00E4800B01020408102040809000FDE47E39
:10006A00019360BCA3FF543F30E509541FFEE4939B
:10007A00A360010ECF54C025E060A840B8E493A362
:10008A00FAE493A3F8E493A3C8C582C8CAC583CA8D
:10009A00F0A3C8C582C8CAC583CADFE9DEE780BE45
:0101030000FB
:00000001FF
