:0300DC0075B0FEFE
:0C00DF00E4FFE4FE0EBEFAFC0FBFFAF6D0
:0100EB0022F2
:0C00EC00E4FFE4FE0EBE3CFC0FBF64F617
:0100F80022E5
:100079001200DC75B0FD1200DF75B0FB1200DF75F0
:10008900B0F71200DF75B0EF1200DF75B0DF1200B4
:10009900DF75B0BF1200DF75B07F1200DF75B0FFEA
:0300A9000200DC76
:1000AC0075B07F1200DF75B0BF1200DF75B0DF12C4
:1000BC0000DF75B0EF1200DF75B0F71200DF75B01E
:1000CC00FB1200DF75B0FD1200DF75B0FE0200DF21
:0400030075B0FF22B3
:0C00F90075B0FF1200DFE4F5B00200DF7C
:10000E00758901D2AFD2A9D28C758CFC758A18E491
:10001E00F510E51024FE600F146011146013240314
:10002E0070F012007980EB1200AC80E612000380B3
:06003E00E11200F980DC74
:03000B00020044AC
:10004400C0E0C0D075D008E59054F064F0601B1295
:1000540000EC20940375100120950375100220967E
:1000640003751003209703751004758CFC758A18AA
:05007400D0D0D0E03205
:03000000020105F5
:0C010500787FE4F6D8FD75811002000E32
:00000001FF
