:040000000C942A0032
:14005400CFE5D4E0CDBFDEBFC051D0400AEA08830024E0E67D
:14006800F0E010E0E036F10711F00192FBCF0083E4E5F0E03C
:14007C00A0E6B0E010E0E435F10721F0C89531960D92F9CFBD
:140090000E944B00FFCF22278FEF87BB1AC0222311F0C09A1E
:1400A40003C088B38E7F88BB222319F441E050E002C044272A
:1400B8005527242F442707C0662702C0039563956F3FE0F3D3
:0A00CC0043954F3FB8F3E5CF0895C8
:00000001FF
