:0E006700E4FFFE0FBF00010EBE27F8BF10F52C
:010075002268
:10000300E4FD20940C1200672094010DBD09027DCC
:1000130001ED14B408005047900022F82828730219
:10002300003A02003F02004402004902004E02006F
:100033005302005802005D7580FE80C67580FD8006
:10004300C17580FB80BC7580F780B77580EF80B287
:100053007580DF80AD7580BF80A875807F80A375B4
:0400630080FF809EFC
:0300000002007685
:0C007600787FE4F6D8FD758107020003D6
:00000001FF
