:1000B500190AFFFFFFFFFFFFFFFFBFBF8986C7C705
:0E00C500C0BFBFFFFFFFFFFFFFFFFF010900ED
:1000F100EF1FAA0670011E4A600BE4FDEDC3947860
:0501010050EE0D80F737
:0101060022D6
:10008F0075087F7C08E5092C240AF8E6F5808508B9
:10009F00B0E508C3134480F5087F017E001200F11C
:0500AF00DCE375B0FF69
:0100B4002229
:1000D4007580FF75B0FFE4F509E4FB12008F0BBBDC
:0D00E4007DF90509E509C3941140EE80E99E
:03000000020003F8
:0C000300787FE4F6D8FD75812202004AE7
:10000F000200D4E493A3F8E493A34003F68001F233
:10001F0008DFF48029E493A3F85407240CC8C333F2
:10002F00C4540F4420C8834004F456800146F6DFC1
:10003F00E4800B01020408102040809000B5E47E9C
:10004F00019360BCA3FF543F30E509541FFEE493B6
:10005F00A360010ECF54C025E060A840B8E493A37D
:10006F00FAE493A3F8E493A3C8C582C8CAC583CAA8
:10007F00F0A3C8C582C8CAC583CADFE9DEE780BE60
:0100D300002C
:00000001FF
